:020000040800F2
:10000000482F0020FD16000885030008870300081C
:100010008B0300088F030008930300080000000012
:10002000000000000000000000000000970300082E
:1000300099030008000000009B0300089D030008CE
:1000400017170008171700081717000817170008D8
:1000500017170008171700081717000817170008C8
:1000600017170008171700081717000817170008B8
:1000700017170008171700081717000817170008A8
:100080001717000817170008171700081717000898
:100090001717000817170008171700081717000888
:1000A0001717000817170008171700081717000878
:1000B0001717000833110008010700081717000878
:1000C0001717000817170008171700081717000858
:1000D0001717000871160008AD0600083D07000854
:1000E0001717000817170008171700081717000838
:1000F0001717000817170008171700081717000828
:100100001717000817170008171700081717000817
:100110001717000817170008171700081717000807
:1001200017170008171700081717000817170008F7
:1001300000F002F800F04BF80AA090E8000C8244AE
:100140008344AAF10107DA4501D100F040F8AFF28B
:10015000090EBAE80F0013F0010F18BFFB1A43F0A5
:1001600001031847E45B0000045C0000103A24BF60
:1001700078C878C1FAD8520724BF30C830C144BF0C
:1001800004680C607047000000230024002500264E
:10019000103A28BF78C1FBD8520728BF30C148BFEA
:1001A0000B607047642904F0C187782904F0FA874E
:1001B000002070471FB505F027FA04000020002139
:1001C00005F0BAFA401C60601FBD10B510BD05F007
:1001D0003FFA1146FFF7EEFF00F028F805F05DFA50
:1001E00003B4FFF7F2FF03BC01F0E8F910B541F6E4
:1001F0001F41092000F070FF4FF4165000F0AFFAD5
:100200003548002101604160816004F00BFB10BDA6
:100210003248D0F88600304908603048B0F8A40071
:1002200088602E48D0F881004860704701F05CF982
:100230004FF4A06001F082FA4FF4E13001F0CCF904
:100240004FF4165000F0D6F900F09CFE00F0C6FE08
:10025000FFF7CCFF22A004F035FF2EA004F032FF00
:1002600038E03648008800F4004030B134491B487B
:1002700000F07AFE002031490880FFF7C9FF1648D8
:1002800004F00AFD002000F0D2FE0446022C05D145
:100290002CA004F017FF022004F0D0FB032C08D19F
:1002A0002FA004F00FFF002004F0C8FB002033490A
:1002B000087032480078854201D030480578C8205F
:1002C00001F04FF92E48006808B9012000E0002035
:1002D0002B490860C5E700004C00002058000020B2
:1002E0002D2D2D2D2D2D2D2DBBF9D3DA475053BAA1
:1002F000CDCEEFC1AACDF8B5C4C5A9BBFABEDFB655
:10030000A8CEBBCFB5CDB32D2D2D2D2D2D2D2D2D23
:100310002D0D0A004B4559313A4169724C696E6B9B
:10032000C1ACBDD3C4A3CABD09204B45595F5550CC
:100330003AB8B4CEBB09200D0A0D0A0018000020FF
:100340000005002057494649BDF8C8EB4169724C89
:10035000696E6BC1ACBDD3C4A3CABD0D0A00000059
:1003600057494649B8B4CEBBA3ACC7EBD6D8D0C228
:10037000C5E4D6C3C1ACBDD30D0A00000000002007
:1003800088812242704700BFFEE700BFFEE700BF42
:10039000FEE700BFFEE770477047704770470000F8
:1003A0000CB50020019000906C48006840F480304B
:1003B0006A49086000BF6948006800F40030009096
:1003C0000198401C0190009818B90198B0F5A06FF1
:1003D000F1D16248006800F4003010B101200090B3
:1003E00001E0002000900098012843D15C4800689B
:1003F00040F010005A4908600846006820F00300E9
:1004000008600846006840F00200086053484068F1
:10041000524948600846406848600846406840F4D1
:10042000806048600846406820F47C1048600846B8
:10043000406840F4E81048600846006840F080706A
:10044000086000BF4548006800F000700028F9D03F
:100450004248406820F00300404948600846406830
:1004600040F00200486000BF3C48406800F00C00CB
:100470000828F9D10CBD10B5FFF792FF10BD10B5DB
:100480003648006840F0010034490860084640687A
:1004900034490840314948600846006832490840FC
:1004A0002E4908600846006820F48020086008464D
:1004B000406820F4FE0048604FF41F008860FFF79A
:1004C000DAFF4FF000602949086010BD10B5002127
:1004D00000200022214B5B6803F00C0121B10429AC
:1004E00006D0082928D107E0214B224C236027E0C1
:1004F0001F4B204C236023E0184B5B6803F4701003
:10050000164B5B6803F48032022303EB904022B960
:10051000194B4343174C23600DE0104B5B6803F409
:10052000003323B1144B4343124C236003E0104BC0
:100530004343104C236003E00D4B0E4C236000BF7F
:1005400000BF064B5B68C3F303130C4CE15C094B23
:100550001B68CB40074C236010BD00000010024018
:10056000002002400000FFF8FFFFF6FE08ED00E06B
:1005700000127A000400002000093D00080000205D
:1005800010B5044644B10021674802F089FB0121FF
:10059000654802F0F1F803E00021634802F0ECF84E
:1005A00010BD7FB505460C460121042001F05DFC1D
:1005B000ADF80450ADF800400020ADF80600ADF8ED
:1005C00002006946584801F07BFD01221146564859
:1005D00002F0EDF81E208DF80C0001208DF80D00C2
:1005E00002208DF80E0001208DF80F0003A801F005
:1005F000AAF87FBD10B586B004460121042001F0A1
:1006000027FC0121480401F030FC484802F092FB2D
:100610000420ADF8100003208DF8120018208DF88A
:10062000130004A9424801F057F90820ADF8100062
:1006300004208DF8130004A93D4801F04DF9009401
:100640000020ADF80400ADF80600ADF80800ADF8E4
:100650000C000C20ADF80A006946344802F0ADFBEE
:100660000121324802F035FC012240F225512F4889
:1006700002F03BFC26208DF8140002208DF81500B6
:1006800003208DF8160001208DF8170005A801F051
:100690005AF841F61F4140F2E730FFF782FF002091
:1006A00024490880FFF76CFF06B010BD10B540F27A
:1006B00025511E4802F0FEFC08B31C4802F07AFCEB
:1006C000C4B21C480088B0F5806F12DA00211648C9
:1006D00002F0E6FA1748008810B90120FFF750FF32
:1006E000144801880088401C124A10801248445463
:1006F00005E01048008840F400400E49088010BD15
:1007000010B50121084802F000FB60B109480088DB
:1007100040F40040074908800121034802F006FB2D
:100720000020FFF72DFF10BD0008004000440040EE
:1007300000080140180000200005002008B540F224
:100740002551304802F0B6FC40B12E4802F032FC90
:10075000C0B200900121684602F00FFF08BD10B53D
:1007600086B004460121082001F072FB01218804B3
:1007700001F07BFB234802F0DDFA4FF48060ADF816
:10078000100003208DF8120018208DF8130004A922
:100790001D4801F0A1F84FF40060ADF810000420EE
:1007A0008DF8130004A9184801F096F80094002071
:1007B000ADF80400ADF80600ADF80800ADF80C0087
:1007C0000C20ADF80A0069460E4802F0F6FA012145
:1007D0000C4802F07EFB012240F22551094802F04C
:1007E00084FB27208DF8140002208DF815000320CB
:1007F0008DF8160001208DF8170005A800F0A3FF62
:1008000006B010BD00480040000C014002461346EF
:1008100010E010782A2805D01078202802DB107804
:100820007A2801DDFF20704710782C2801D1481E5E
:10083000C1B2521C0029ECD1D01AC0B2F3E710B5F6
:100840000246012000E050430B00A1F10104E1B297
:10085000F9D110BD2DE9F34F81B007463C46002089
:100860000090834681460026804628E020782D2887
:1008700002D148F00208641C20782C2802D020788D
:100880002A2800D11CE020782E2803D148F0010846
:10089000641C09E02078392802DC2078302803DA4B
:1008A0004FF0000900260BE008F0010010B1701CA9
:1008B000C6B203E009F1010000F0FF09641CD5E7AE
:1008C00000BF08F0020000B17F1C00250EE0A9F176
:1008D0000100401BC1B20A20FFF7B1FF795D30393A
:1008E000009A00FB01200090681CC5B24D45EEDB6C
:1008F000052E00DD05260298067000250EE0701E0C
:10090000401BC1B20A20FFF79AFF09F101012944F7
:10091000795C303900FB01BB681CC5B2B542EEDB27
:1009200031460A20FFF78BFF009901FB00BA08F05F
:10093000020008B1CAF1000A5046BDE8FE8F2DE959
:10094000FC5F07468A464FF00008CDF804A0FEA1E0
:10095000019804F0EFFC0646F079303800F0FF0B08
:1009600003213046FFF752FF0546FF2D04D07019D2
:100970006946FFF76FFF38704FF000096CE0F2A195
:10098000019804F0D7FC064600245CE0042000EB4C
:100990008400C1B23046FFF739FF0546FF2D09D06C
:1009A00070196946FFF756FFC1B208EB8802B81C00
:1009B000815400E049E0052000EB8400C1B23046DC
:1009C000FFF724FF0546FF2D0AD070196946FFF78F
:1009D00041FFC1B208EB8802B81C1044417000E02E
:1009E00033E0062000EB8400C1B23046FFF70EFF73
:1009F0000546FF2D0AD070196946FFF72BFF81B21B
:100A000008EB8802B81C1044418000E01DE007207C
:100A100000EB8400C1B23046FFF7F8FE0546FF2D1B
:100A20000AD070196946FFF715FFC1B208EB8802BA
:100A3000B81C1044017100E007E008F1010000F06B
:100A4000FF08601CC4B2042CA0DB00BF701C019026
:100A500009F1010000F0FF09D94590DBBDE8FC9FDA
:100A60002DE9FC5F07468A464FF00008CDF804A048
:100A7000B7A1019804F05EFC0646F079303800F02A
:100A8000FF0B03213046FFF7C1FE0546FF2D04D0C2
:100A900070196946FFF7DEFE78704FF0000970E0CC
:100AA000ABA1019804F046FC0646002460E0042057
:100AB00000EB8400C1B23046FFF7A8FE0546FF2DCB
:100AC0000AD070196946FFF7C5FEC1B208EB88026B
:100AD00007F13E00815400E04CE0052000EB84006B
:100AE000C1B23046FFF792FE0546FF2D0BD07019BC
:100AF0006946FFF7AFFEC1B208EB880207F13E007E
:100B00001044417000E035E0062000EB8400C1B2E3
:100B10003046FFF77BFE0546FF2D0BD07019694666
:100B2000FFF798FE81B208EB880207F13E001044FF
:100B3000418000E01EE0072000EB8400C1B2304697
:100B4000FFF764FE0546FF2D0BD070196946FFF7CD
:100B500081FEC1B208EB880207F13E00104401712A
:100B600000E007E008F1010000F0FF08601CC4B2DB
:100B7000042C9CDB00BF701C019009F1010000F007
:100B8000FF09D9458CDBBDE8FC9FF8B505460F464B
:100B900071A1384604F0CEFB064606213046FFF729
:100BA00035FE0446FF2C05D030196946FFF752FE8A
:100BB00085F88B0007213046FFF728FE0446FF2CFE
:100BC00005D030196946FFF745FE85F88C000921EC
:100BD0003046FFF71BFE0446FF2C05D0301969464E
:100BE000FFF738FEC5F8A000F8BD2DE9F84305462B
:100BF00088465BA1404604F09DFB06460221304634
:100C0000FFF704FE0446FF2C05D030196946FFF7B4
:100C100021FE85F89900002713E0F81CC1B2304688
:100C2000FFF7F4FD0446FF2C08D030196946FFF7A2
:100C300011FEC1B205F18D00C15500E003E0781C42
:100C4000C7B20C2FE9DB00BF0F213046FFF7DEFDF6
:100C50000446FF2C05D030196946FFF7FBFDA5F8C7
:100C60009A0010213046FFF7D1FD0446FF2C05D035
:100C700030196946FFF7EEFDA5F89C0011213046BA
:100C8000FFF7C4FD0446FF2C05D030196946FFF775
:100C9000E1FDA5F89E00BDE8F8832DE9F04F85B091
:100CA0000446884630A1404604F044FB0746012133
:100CB0003846FFF7ABFD0546FF2D23D0781904A970
:100CC000FFF7C8FD82469DF810100A20FFF7B7FD18
:100CD000BAFBF0F642F21070B6FBF0F0C1B27E2023
:100CE00001556420B6FBF0F06421B0FBF1F201FB8A
:100CF00012017F2001556420B6FBF0F100FB116169
:100D00008020015503213846FFF780FD0546FF2D61
:100D10005BD0781904A9FFF79DFD06469DF81000E9
:100D2000801CC1B20A20FFF78AFDB6FBF0F044F840
:100D3000810F9DF81000801CC1B20A20FFF77FFDD3
:100D4000B6FBF0F114E00000244750475356000072
:100D5000244244475356000024474E474741000071
:100D600024474E4753410000244750524D43000052
:100D700000FB116A504604F039FE81469DF81000D0
:100D8000C0F10500C1B20A20FFF759FD009004F040
:100D90002DFE8346494604F03DFE8246764904F026
:100DA00043FD052102900A20FFF749FD216800FB61
:100DB00001FA504604F01AFE0190029904F0D2FCA8
:100DC000039004F0F3FD44F8810904213846FFF74D
:100DD0001DFD0546FF2D02D0785D84F885000521B4
:100DE0003846FFF713FD0546FF2D45D0781904A9B5
:100DF000FFF730FD06469DF81000801CC1B20A20A6
:100E0000FFF71DFDB6FBF0F044F8860F9DF81000CB
:100E1000801CC1B20A20FFF712FDB6FBF0F100FB07
:100E2000116A504604F0E2FD81469DF81000C0F1C1
:100E30000500C1B20A20FFF702FD009004F0D6FDC4
:100E40008346494604F0E6FD82464B4904F0ECFC3B
:100E5000052102900A20FFF7F2FC216800FB01FA4D
:100E6000504604F0C3FD0190029904F07BFC03900E
:100E700004F09CFD44F8860906213846FFF7C6FCBD
:100E80000546FF2D02D0785D84F88A000921384696
:100E9000FFF7BCFC0546FF2D1ED0781904A9FFF70B
:100EA000D9FC064642F21070B6FBF0F0C1B27D20CC
:100EB00001556420B6FBF0F06421B0FBF1F201FBB8
:100EC00012017C2001556420B6FBF0F100FB11609B
:100ED00000F5FA60A4F87A0007213846FFF796FC7F
:100EE0000546FF2D16D0781904A9FFF7B3FCA4F826
:100EF000A4009DF8100003280CDA9DF81000C0F142
:100F00000300C1B20A20FFF79AFCB4F8A4104843CA
:100F1000A4F8A40005B0BDE8F08FF8B504460D466E
:100F200016A1284604F006FA064607213046FFF7C8
:100F30006DFC0746FF2F16D0F0196946FFF78AFCB3
:100F4000A4F8A4009DF8000003280CDA9DF8000026
:100F5000C0F10300C1B20A20FFF771FCB4F8A4107D
:100F60004843A4F8A400F8BD70B504460D462946D0
:100F70002046FFF792FE70BD0000704224474E5697
:100F80005447000008B50121242000F061FF04202F
:100F9000ADF8000010208DF8030003208DF802004A
:100FA00069460A4800F098FC0421094800F041FD18
:100FB0004FF48070ADF800006946064800F08CFCE4
:100FC0004FF48071044800F034FD08BD000C01406E
:100FD00000140140001801400008014008B501213B
:100FE000142000F035FF0121374800F046FD4FF492
:100FF0000040ADF8000048208DF8030069463348F2
:1010000000F06AFC2020ADF8000048208DF80300B5
:1010100069462F4800F060FC0120ADF80000282050
:101020008DF803006946294800F056FC08BD10B54C
:10103000044614B10120274908702648007868B397
:101040002021234800F0DBFC58B14FF400411F4839
:1010500000F0D5FC28B101211C4800F0D0FC01288B
:101060001CD10A2000F07DFA00201A4908702021C6
:10107000174800F0C4FC08B9012010BD4FF400412E
:10108000124800F0BCFC08B90220F6E701210F4825
:1010900000F0B5FC012815D10320EEE720210C4813
:1010A00000F0ADFC01280DD1C103084800F0A7FCF9
:1010B000012807D10121054800F0A1FC10B9012049
:1010C000044908700020D8E7000230000008014001
:1010D000001001401A0000207FB505460C46012192
:1010E000022000F0C2FEADF80850ADF80440002028
:1010F000ADF80A00ADF8060001A9144800F0E0FFC1
:1011000001221146114801F052FB1D208DF800000C
:1011100000208DF8010003208DF8020001208DF8D9
:101120000300684600F00FFB0121084801F024FB92
:101130007FBD10B50121054801F0E7FD28B101216F
:10114000024801F0F3FD02F06BF810BD000400400E
:1011500010B502460024002302B109B9002010BDD9
:10116000022303E0D05C2044C4B25B1C481E9842BA
:10117000F8D82046F3E701B581B000200090694619
:1011800001AA5078087010784870BDF800000CBDB6
:101190000146080601F47F4240EA022001F47F0282
:1011A00040EA122040EA1160704710B50246002361
:1011B0000024302A05DB392A03DCA2F13000C3B257
:1011C0000EE0412A05DB462A03DCA2F13700C3B258
:1011D00006E0612A04DB662A02DCA2F15700C3B2F2
:1011E000302905DB392903DCA1F13000C4B20EE05F
:1011F000412905DB462903DCA1F13700C4B206E032
:10120000612904DB662902DCA1F15700C4B204EBBA
:101210000310C0B210BD70B504460025002620465C
:1012200004F09AF806460CB9681E70BD002505E06A
:10123000605D302801D00020F7E76D1CB542F7D380
:101240000120F2E72DE9F043034600BF002500240A
:1012500000260027012901D002290DD1A3F1010C9C
:101260004FF06408BCFBF8F4BCFBF8F908FB19C5A7
:1012700001F10C06174609E04FF0640CB3FBFCF4D7
:10128000B3FBFCF80CFB18350E46174606F1010CB3
:101290004FF01A080CFB08FC4FF00A08BCFBF8FCE6
:1012A00005EB950808EB94084FF0020909FB148838
:1012B000C444BC44ACF10100002806DB4FF0070C2D
:1012C00090FBFCF80CFB180C07E04FF0070C90FBB0
:1012D000FCF80CFB180C0CF1070C6046BDE8F08321
:1012E00001460A46C81701EB90708010A1EB800000
:1012F00070B9642091FBF0F300FB131030B94FF488
:10130000C87091FBF0F300FB131008B9012070477F
:101310000020FCE710B504462046FFF7E1FF10B1BE
:101320004FF4B77010BD40F26D10FBE72DE9F041AE
:1013300090B080460E4640F2B2753022684901A84E
:1013400004F06EF8344604F5E14400BF11E028468D
:10135000FFF7E0FF074640F2A3207843B4EBC01F3D
:1013600006D340F2A3207843A4EBC0146D1C00E028
:1013700001E0002CEBD100BFA8B2ADF8340000258D
:1013800018E0BDF83400FFF7ABFF08B11D20029054
:1013900001A850F8250040F2A3214843B4EBC01F38
:1013A00007D301A850F825004843A4EBC0146D1CD6
:1013B00000E001E0002CE4D100BF1C200290681C7A
:1013C000C0B28DF83600012506E04648844202D3BB
:1013D000241A6D1C00E001E0002CF6D100BFE8B239
:1013E0008DF837004FF46160B4FBF0F0C0B28DF8B7
:1013F00038004FF46160B4FBF0F100FB11403C2178
:10140000B0FBF1F0C0B28DF839003C20B4FBF0F134
:1014100000FB11408DF83A00CDF83B600D98C8F8FC
:1014200000000E98C8F80400BDF83C00A8F80800B9
:101430009DF83E0088F80A0010B0BDE8F0812DE963
:10144000F05F80460E46914600241CE016F814A07A
:101450006000401C16F800B0504603F024FE3038FF
:10146000C5B2092D01DDE81FC5B2584603F01BFEC9
:101470003038C7B2092F01DDF81FC7B207EB0510DE
:1014800008F80400641C4C45E0DBBDE8F09FF0B5B3
:10149000034600201EE00E5CF71706EB17773F119E
:1014A00007F130050E5CF71706EB17773F11A6EB37
:1014B00007173037FCB2392D01DDEE1DF5B2392C9E
:1014C00001DDE61DF4B203F81050012606EB4006DC
:1014D0009C55401C9042DEDB002603F81260F0BDF4
:1014E000985C00088051010010B56FF0040000F016
:1014F00074F92E4800682E49B0FBF1F02D490870B0
:101500000846007800EB4001C1EBC0104FF6FF71B8
:1015100001EAC0002849088010BD0146254A12781A
:101520004A434FF0E0235A6100229A611A46126939
:1015300042F001021A6100BF4FF0E022106900F092
:1015400001021AB100F48032002AF5D04FF0E022F7
:10155000126922F001024FF0E0231A6100229A6121
:1015600070470146144A12884A434FF0E0235A61FB
:1015700000229A611A46126942F001021A6100BF04
:101580004FF0E022106900F001021AB100F480323D
:10159000002AF5D04FF0E022126922F001024FF04C
:1015A000E0231A6100229A617047000004000020C5
:1015B00000127A001C0000201E00002000BF7047AF
:1015C00000BF4A4A128802F04002002AF9D0C2B293
:1015D000464B1B1D1A80704710B586B0044601218A
:1015E00044F2040000F034FC4FF40070ADF8140035
:1015F00003208DF8160018208DF8170005A93C4827
:1016000000F06AF94FF48060ADF8140004208DF802
:10161000170005A9364800F05FF925208DF8000075
:1016200003208DF801008DF8020001208DF80300E1
:10163000684600F088F801940020ADF80800ADF885
:101640000A00ADF80C00ADF810000C20ADF80E004B
:1016500001A9264801F0B1FB012240F2255123489F
:1016600001F043FC0121214801F033FC06B010BD1C
:1016700010B540F225511D4801F01CFD10B31B4868
:1016800001F098FCC4B21B48008800F40040C8B9BF
:101690001848008800F4804060B10A2C03D0002074
:1016A0001449088020E01348008840F400401149A4
:1016B000088019E00D2C06D10E48008840F48040C7
:1016C0000C49088010E00B480088C0F30D000A495F
:1016D0000C5408480088401C0649088008460088C9
:1016E000C72801DD0020088010BD0000003801403F
:1016F000000801402400002000090020094880471C
:1017000009480047FEE7FEE7FEE7FEE7FEE7FEE7E3
:10171000FEE7FEE7FEE7FEE704480549054A064BFB
:10172000704700007F04000831010008481D0020B8
:10173000482F0020481F0020481F00203149014346
:10174000314A1160704770B5002100230F22C47820
:1017500004B32D4C246804F4E064C4F5E064210A69
:10176000C1F10403CA40447804FA03F184781440B8
:1017700021430901254C0678A155047804F01F0582
:101780000124AC4005786D11AD0005F1E025C5F8E8
:10179000004109E0047804F01F050124AC401C4D11
:1017A0000678761145F8264070BD1A4A0A40024371
:1017B000154B1B1F1A60704739B1134A121D12686E
:1017C0000243114B1B1D1A6006E00F4A121D1268DE
:1017D00082430D4B1B1D1A607047042808D14FF03F
:1017E000E021096941F004014FF0E022116107E0B6
:1017F0004FF0E021096921F004014FF0E02211616E
:10180000704700000000FA050CED00E000E400E085
:1018100080E100E080FFFF1F10B50446CC48844201
:1018200008D10121042000F02DFB0021042000F04C
:1018300029FB46E0C748844208D10121082000F076
:1018400021FB0021082000F01DFB3AE0C248844241
:1018500008D10121102000F015FB0021102000F01C
:1018600011FB2EE0BD48844208D10121202000F068
:1018700009FB0021202000F005FB22E0B84884424B
:1018800008D10121402000F0FDFA0021402000F0A5
:10189000F9FA16E0B348844208D10121802000F013
:1018A000F1FA0021802000F0EDFA0AE0AE4884420F
:1018B00007D10121801500F0E5FA0021A01500F004
:1018C000E1FA10BD10B50121084600F0DBFA002155
:1018D000012000F0D7FA10BD2DE9F04102460025A5
:1018E0000026002000230024002791F803C00CF0FC
:1018F0000F0591F803C00CF0100CBCF1000F03D0E1
:1019000091F802C04CEA050591F800C0BCF1000F47
:1019100031D0146800202BE04FF0010C0CFA00F3DA
:10192000B1F800C00CEA03069E4220D183004FF0BC
:101930000F0C0CFA03F7BC4305FA03FC4CEA040451
:1019400091F803C0BCF1280F06D14FF0010C0CFA3E
:1019500000FCC2F814C00AE091F803C0BCF1480FC3
:1019600005D14FF0010C0CFA00FCC2F810C0401C6D
:101970000828D1D31460B1F800C0BCF1FF0F34DDEA
:10198000546800202EE000F1080C4FF0010808FA1E
:101990000CF3B1F800C00CEA03069E4221D183008B
:1019A0004FF00F0C0CFA03F7BC4305FA03FC4CEAAA
:1019B000040491F803C0BCF1280F05D100F1080C14
:1019C00008FA0CF8C2F8148091F803C0BCF1480F73
:1019D00007D100F1080C4FF0010808FA0CF8C2F822
:1019E0001080401C0828CED35460BDE8F0814FF62B
:1019F000FF710180022181700421C170704702468D
:101A0000002093680B400BB1012000E000207047DC
:101A10000146886880B2704702460020D3680B40B8
:101A20000BB1012000E0002070470146C86880B279
:101A3000704701617047416170470AB1016100E080
:101A400041617047C16070474FF480320A43826140
:101A50008161826182698269704702460020434B3E
:101A600018684FF68073184040EA021008433F4B55
:101A7000186070473E49C8617047F0B50A460023B8
:101A800000240021002500F00046B6F1004F02D1ED
:101A9000364EF16901E0354E7168C0F3034583B2FB
:101AA00000F44016B6F5401F08D121F070612F4EAA
:101AB000766826F070662D4F7E6012E000F4801686
:101AC000B6F5801F06D1032606FA05F4A14341F0BE
:101AD000706106E0460D360103FA06F6B14341F0A7
:101AE000706122B1460D360103FA06F6314300F06B
:101AF0000046B6F1004F02D11C4EF16101E01B4ED1
:101B00007160F0BD30B500228B071C0F0F2303FA64
:101B100004F2164B08338C1053F824309343134CC3
:101B200008348D1044F8253023468C1053F82430A7
:101B30008C07240F00FA04F423430C4C08348D1056
:101B400044F8253030BD0A49DC3108607047000098
:101B500000080140000C0140001001400014014049
:101B600000180140001C014000200140000001401D
:101B700000002042DF48006840F00100DD490860B5
:101B800008464068DC490840DA4948600846006871
:101B9000DA490840D74908600846006820F48020E8
:101BA00008600846406820F4FE0048604FF41F00BB
:101BB00088607047CF49096821F48031CD4A1160AF
:101BC0001146096821F480211160B0F5803F03D0EF
:101BD000B0F5802F0ED106E0C649096841F4803186
:101BE000C44A116007E0C349096841F4A021C14A11
:101BF000116000E000BF00BF704710B50146002231
:101C0000002300204A11012A02D1BA4C236806E0C1
:101C1000022A02D1B74C236A01E0B64C636A01F094
:101C20001F02012494401C400CB1012000E0002060
:101C300010BD38B5002000900024002500BF3120E1
:101C4000FFF7DBFF05460098401C00900098B0F5B8
:101C5000A06F01D0002DF2D03120FFF7CEFF08B1E8
:101C6000012400E00024204638BD01460020A14A9E
:101C7000106820F0F80040EAC10010607047A049E9
:101C800008607047024600209A4B586820F47C1088
:101C900042EA01031843974B586070479849086619
:101CA000704701460020934A506820F00300084323
:101CB000506070478F48406800F00C007047014644
:101CC00000208C4A506820F0F000084350607047B4
:101CD00001460020874A506820F4E06008435060C5
:101CE000704701460020834A506820F4605040EA63
:101CF000C1005060704729B17E4A527A02437D4B41
:101D00005A7204E07B4A527A82437A4B5A72704785
:101D10007B49D8310860704701460020754A5068F9
:101D200020F440400843506070470021714A20323F
:101D30001170704A82F82010012802D004280AD1BC
:101D400004E001216B4A2032117005E00521694A47
:101D50002032117000E000BF00BF70476949086081
:101D600070476449096A0143624A116270476549D4
:101D700044390860704730B5002100220024002358
:101D80005C4D6D6805F00C0121B1042905D00829CE
:101D900023D105E05C4D056022E05B4D05601FE04E
:101DA000544D6D6805F47012524D6D6805F4803421
:101DB000022505EB92421CB9544D554305600BE0DA
:101DC0004C4D6D6805F400351DB1504D554305600F
:101DD00002E04D4D5543056002E04B4D056000BFEC
:101DE00000BF444D6D6805F0F0010909484D6B5C7A
:101DF0000568DD4045603F4D6D6805F4E061090A06
:101E0000434D6B5C4568DD4085603A4D6D6805F477
:101E10006051C90A3E4D6B5C4568DD40C560354D7B
:101E20006D6805F44041890B3A4D6B5CC568B5FBA4
:101E3000F3F5056130BD29B12E4A526902432D4B9D
:101E40005A6104E02B4A526982432A4B5A61704717
:101E500029B1284A92690243264B9A6104E0254A37
:101E600092698243234B9A61704729B1214AD26912
:101E70000243204BDA6104E01E4AD26982431D4BC3
:101E8000DA61704729B11B4AD2680243194BDA6004
:101E900004E0184AD2688243164BDA60704729B1D1
:101EA000144A12690243134B1A6104E0114A126981
:101EB0008243104B1A6170471249403908607047DD
:101EC0000F49C86470470B49C87170470948406A98
:101ED00040F0807007494862704701460020054A7B
:101EE00092680A400AB1012000E0002070470149D1
:101EF00088727047001002400000FFF8FFFFF6FEF6
:101F0000000042428004424200127A0000093D0073
:101F1000260000203600002010B50446FE4884420A
:101F200008D10121C014FFF7ADFF0021E014FFF735
:101F3000A9FFC4E0B4F1804F08D101210846FFF7A2
:101F4000AEFF00210120FFF7AAFFB8E0F34884426A
:101F500008D101210220FFF7A2FF00210220FFF794
:101F60009EFFACE0EE48844208D101210420FFF737
:101F700096FF00210420FFF792FFA0E0E948844289
:101F800008D101210820FFF78AFF00210820FFF770
:101F900086FF94E0E448844208D101211020FFF735
:101FA0007EFF00211020FFF77AFF88E0DF4884429F
:101FB00008D101212020FFF772FF00212020FFF728
:101FC0006EFF7CE0DA48844208D101214014FFF71B
:101FD00059FF00216014FFF755FF70E0D548844297
:101FE00009D10121C804FFF74DFF00214FF4002063
:101FF000FFF748FF63E0D048844209D1012108057A
:10200000FFF740FF00214FF48010FFF73BFF56E041
:10201000CA48844209D101214805FFF733FF002156
:102020004FF40010FFF72EFF49E0C548844208D165
:1020300001214020FFF733FF00214020FFF72FFF51
:102040003DE0C048844208D101218020FFF727FFEE
:1020500000218020FFF723FF31E0BB48844208D1F4
:1020600001218015FFF71BFF0021A015FFF717FFC7
:1020700025E0B648844209D101210804FFF702FF98
:1020800000214FF48030FFF7FDFE18E0B048844295
:1020900009D101214804FFF7F5FE00214FF400307B
:1020A000FFF7F0FE0BE0AB48844208D10121880421
:1020B000FFF7E8FE00214FF48020FFF7E3FE10BD9C
:1020C00000220288944B98420ED0994B98420BD034
:1020D000B0F1804F08D0914B984205D0904B984278
:1020E00002D0904B984204D14FF68F731A404B8820
:1020F0001A438D4B984207D08C4B984204D04FF630
:10210000FF431A40CB881A4302808B8883850B8853
:102110000385814B98420BD0854B984208D08B4B5E
:10212000984205D08A4B984202D08A4B984201D1FE
:102130000B7A038601238382704770B50024002246
:102140000023058C4FF6FE7635400584028C83888B
:10215000048B4FF68F752C40B51E2C400D882C43F8
:10216000751E2A400D892A434D882A436A4DA8428C
:102170000BD06F4DA84208D0744DA84205D0744DC5
:10218000A84202D0734DA84213D14FF6F7752A40EA
:102190004D892A434FF6FB752A408D882A434FF616
:1021A000FF652B404FF6FF552B408D892B43CD8982
:1021B0002B4383800483CD888586028470BD70B5EF
:1021C000002400220023058C4FF6EF76354005846D
:1021D000028C8388048B48F6FF752C404FF6FF4530
:1021E0002C400D884FF6FF7606EA05252C434FF666
:1021F000DF752A400D8906EA05152A434D8806EA4F
:1022000005152A43444DA84202D0494DA8421DD18C
:102210004FF67F752A404D894FF6FF7606EA051581
:102220002A434FF6BF752A408D8806EA05152A43D2
:102230004FF6FF352B404FF2FF752B408D8906EA94
:1022400085052B43CD8906EA85052B4383800483CE
:10225000CD880587028470BD70B50024002200235C
:10226000058C4FF6FF6635400584028C8388848B8D
:102270004FF68F752C404FF6FC752C400D882C4383
:102280004FF6FF552A400D894FF6FF7606EA0525E1
:102290002A434D8806EA05252A431F4DA84202D04D
:1022A000234DA8421DD14FF2FF752A404D894FF6AC
:1022B000FF7606EA05252A434FF6FF352A408D882A
:1022C00006EA05252A434EF6FF752B404DF6FF75AD
:1022D0002B408D8906EA05152B43CD8906EA0515A5
:1022E0002B4383808483CD888587028470BD70B53D
:1022F000002200230024058C4EF6FF76354005842D
:10230000038C8488828B48F6FF752A404FF6FF4580
:102310002A400D8820E00000002C0140000400400D
:1023200000080040000C0040001000400014004075
:1023300000340140004C0140005001400054014075
:1023400000180040001C00400020004000400140F8
:1023500000440140004801404FF6FF7606EA05259B
:102360002A434DF6FF752B400D8906EA05352B43B0
:102370004D8806EA05352B43FA4DA84202D0FA4DA6
:10238000A84208D14BF6FF752C408D894FF6FF7699
:1023900006EA85152C4384808283CD88A0F84050BE
:1023A000038470BD828B4FF2FF331A408283828B8D
:1023B0004FF6FF7303EA01231A4382837047F0B597
:1023C0000C461546002200210026078C4EF6FF7CA5
:1023D00007EA0C070784828B018C4FF6FF7707EA28
:1023E000043640F6FF473A404FF6FF7707EA0527E5
:1023F0003A434FF6FF7707EA03373A43D94FB842DB
:102400000ED0D94FB8420BD0B0F1804F08D0D74F83
:10241000B84205D0D64FB84202D0D64FB84206D106
:102420004DF6FF77394046F48057394305E047F6CB
:10243000FF57394044F48057394382830184F0BD0B
:10244000828B4FF6F3731A408283828B0A43828316
:102450007047F0B50C461546002200210026078C77
:102460004FF6FF6C07EA0C070784828B018C4FF64E
:10247000FF7707EA04264FF60C773A404FF6FF77CE
:1024800007EA03172F433A43B64FB8420ED0B64F70
:10249000B8420BD0B0F1804F08D0B44FB84205D04D
:1024A000B34FB84202D0B34FB84206D14FF6FF57F0
:1024B000394046F48077394305E04FF2FF57394001
:1024C00044F48077394382830184F0BD028B4FF25C
:1024D000FF331A400283028B4FF6FF7303EA012396
:1024E0001A4302837047F0B50C46154600220021BE
:1024F0000026078C4FF6EF7C07EA0C070784028B57
:10250000018C4FF6FF7707EA041640F6FF473A4082
:102510004FF6FF7707EA03373A434FF6FF7707EAAC
:1025200005273A438F4FB8420ED08F4FB8420BD099
:10253000B0F1804F08D08D4FB84205D08C4FB842D3
:1025400002D08C4FB84206D14FF6DF77394046F0C3
:102550001007394305E04FF65F77394044F0100724
:10256000394302830184F0BD028B4FF6F3731A40A6
:102570000283028B0A4302837047F0B50C4615466E
:1025800000220021068C4FF6FE773E400684028B27
:10259000018C4FF60C7632407E1C06EA03162E4361
:1025A0003243704EB0420ED06F4EB0420BD0B0F1FD
:1025B000804F08D06D4EB04205D06D4EB04202D073
:1025C0006C4EB04206D14FF6FD76314044F0010624
:1025D000314305E04FF6F576314044F001063143D2
:1025E00002830184F0BD70B505460C465D48854206
:1025F0000ED05D4885420BD0B5F1804F08D05B48C6
:10260000854205D05A48854202D05A48854200D1B9
:1026100000E000BF208850B92389A288618828463D
:10262000FFF7ABFFE1882846FFF79EFF25E02088F3
:1026300004280AD12389A28861882846FFF753FF1E
:10264000E1882846FFF742FF17E0208808280AD1D2
:102650002389A28861882846FFF7FBFEE188284687
:10266000FFF7EEFE09E02389A28861882846FFF77C
:10267000A6FEE1882846FFF795FE70BD2DE9F041E2
:1026800005460C4600260127608808B9022600E0AE
:102690000026A088012801D1022700E00127208818
:1026A000A0B92389A28861882846FFF766FFE188E0
:1026B0002846FFF759FF23893A4631462846FFF757
:1026C00012FFE1882846FFF701FF13E02389A28863
:1026D00061882846FFF707FFE1882846FFF7F6FEE6
:1026E00023893A4631462846FFF747FFE1882846C6
:1026F000FFF73AFFBDE8F0810A884B881A438B88C0
:102700001A43CB881A430B891A434B891A438B8986
:102710001A43A0F8442070474FF6FF7181800021D2
:102720000180C18041800172704700210180418099
:102730008180C180018141818181C18170470021F7
:1027400001804180012181800021C1800181704789
:102750000021018041808180C1800181418181818E
:1027600070470000002C014000340140000400408C
:1027700000080040000C004021B1028842F0010234
:10278000028004E002884FF6FE731A400280704710
:1027900031B1B0F8442042F40042A0F8442005E0F2
:1027A000B0F84420C2F30E02A0F8442070471AB1DA
:1027B00083890B43838102E083898B438381704744
:1027C0008182704741EA0203A0F8483070471AB18D
:1027D00083890B43838102E083898B438381704724
:1027E00001894FF6F8721140018170470A460021B5
:1027F00001894FF68F73194011430181704730B53D
:1028000004460D4629462046FFF7F0FF208940F098
:102810000700208130BD2DE9F04104460D461646E3
:102820001F46602D06D13B46012231462046FFF768
:102830005AFE05E03B46012231462046FFF79DFE49
:1028400029462046FFF7D2FF208940F0070020816B
:10285000BDE8F08130B50C4600210189C9B24FF6C0
:10286000FF7505EA0325154325432943018130BD42
:102870002DE9F04105460E4617469846002443468A
:102880003A4631462846FFF7E5FF2C894FF6F870A7
:10289000044044F007044FF68F70044044F0700485
:1028A0002C81BDE8F081F0B504460D4616461F4662
:1028B0003B46324629462046FFF7CCFF208940F4AC
:1028C00080402081F0BD0185828270470A46002148
:1028D00001884FF68F731940114301807047F0B59E
:1028E0000C4615461E460021002200230189028B5A
:1028F000038C4FF6F877394021434FF6FC473A40B6
:1029000040F201173A434FF6DD773B404FF6FF7731
:1029100007EA06172F433B43018102830384F0BD7E
:102920000A460021018B4FF68F7319401143018332
:1029300070470A460021018B48F6FF7319404FF695
:10294000FF7303EA02231943018370470A460021FB
:10295000818B4FF68F7319401143818370470A466C
:102960000021818B48F6FF7319404FF6FF7303EA8D
:10297000022319438183704721B1028842F080020B
:10298000028004E002884FF67F731A40028070478D
:1029900021B1828842F00402828004E082884FF6EE
:1029A000FB731A408280704721B1828842F008028E
:1029B000828004E082884FF6F7731A408280704765
:1029C00021B1828842F00102828004E082884FF6C1
:1029D000FE731A40828070470A460021018B4FF631
:1029E000F77319401143018370470A460021018B98
:1029F0004FF2FF7319404FF6FF7303EA02231943A6
:102A0000018370470A460021818B4FF6F773194006
:102A10001143818370470A460021818B4FF2FF7377
:102A200019404FF6FF7303EA02231943818370476D
:102A30000A460021018B4FF6FB73194011430183B5
:102A400070470A460021018B4FF6FF3319404FF6BD
:102A5000FF7303EA02231943018370470A460021EA
:102A6000818B4FF6FB7319401143818370470A46EF
:102A70000021818B4FF6FF3319404FF6FF7303EAB5
:102A800002231943818370470A460021018B4FF6C8
:102A90007F7319401143018370470A460021018B5F
:102AA000C1F30E014FF6FF7303EA022319430183BA
:102AB00070470A460021818B4FF67F7319401143FE
:102AC000818370470A460021818BC1F30E014FF6C6
:102AD000FF7303EA02231943818370470A460021EA
:102AE000018C4FF6FD7319401143018470470A466B
:102AF0000021018C4FF6F773194011430184704790
:102B00000A460021018C4FF6DF7319404FF6FF7320
:102B100003EA02131943018470470A460021018C1D
:102B20004FF67F7319404FF6FF7303EA0213194300
:102B3000018470470A460021018C4FF6FF5319406B
:102B40004FF6FF7303EA02231943018470470A46D4
:102B50000021018C4FF2FF7319404FF6FF7303EA17
:102B600002231943018470470A460021018C4DF667
:102B7000FF7319404FF6FF7303EA023319430184D0
:102B8000704730B5002301248C40A3B2048C9C43D1
:102B90000484048C02FA01F5ADB22C43048430BDE8
:102BA00030B5002304248C40A3B2048C9C430484DD
:102BB000048C02FA01F5ADB22C43048430BD70B52B
:102BC0000346002000241846183001258D40ACB281
:102BD0001D8CA5431D8409B1082909D100EB6100B2
:102BE000056825F0700505600568154305600EE071
:102BF0000D1FC5F34E052844056825F4E045056022
:102C000005684FF6FF7606EA02263543056070BD7B
:102C100021B1028842F00202028004E002884FF6ED
:102C2000FD731A400280704721B1028842F004020D
:102C3000028004E002884FF6FB731A40028070475E
:102C400021B1828842F08002828004E082884FF6BF
:102C50007F731A408280704702884FF6F7731A40DC
:102C6000028002880A430280704782884FF68F7381
:102C70001A40828082880A438280704702894FF618
:102C8000F8731A40028102890A430281704702895F
:102C90004FF67F731A40028102890A43028170470E
:102CA00081847047818570478186704701877047AE
:102CB00081877047A0F84010704702884FF6FF43A5
:102CC0001A40028002880A43028070470146888EBB
:102CD00070470146088F70470146888F704701464C
:102CE000B1F8400070470146888C70470146088D56
:102CF000704702460020138A0B400BB1012000E010
:102D000000207047CA430282704730B50246002057
:102D100000230024158A05EA0103958905EA0104C8
:102D200013B10CB1012000E0002030BDCA43028283
:102D30007047000010B50446FB48844209D10121C8
:102D40008803FFF79FF800214FF48040FFF79AF8BF
:102D500032E0F648844209D101214804FFF79FF888
:102D600000214FF40030FFF79AF825E0F048844244
:102D700009D101218804FFF792F800214FF4802047
:102D8000FFF78DF818E0EB48844209D10121C8040F
:102D9000FFF785F800214FF40020FFF780F80BE0E3
:102DA000E548844208D101210805FFF778F80021A1
:102DB0004FF48010FFF773F810BD2DE9F04786B08F
:102DC00005460E460024A24600BFA1460027B08952
:102DD00000B100BF2F462C8A4CF6FF700440F088EB
:102DE00004432C82AC894EF6F3100440B08831893C
:102DF0000843718908430443AC81AC8A4FF6FF4015
:102E00000440B0890443AC8201A8FEF7B4FFC64871
:102E1000874202D1DDF810A001E0DDF80CA0A889FE
:102E200000F4004040B10AEBCA0000EB0A10316820
:102E30004900B0FBF1F807E00AEBCA0000EB0A100A
:102E400031688900B0FBF1F86420B8FBF0F00401B0
:102E50002009642101FB1089A88900F4004040B1D9
:102E6000322000EBC900B0FBF1F000F00700044392
:102E700008E0322000EB09106421B0FBF1F000F013
:102E80000F0004432C8106B0BDE8F0874FF41651C3
:102E9000016000218180C18001810C2141810021DC
:102EA0008181704710B502460020108A4FF2FF035F
:102EB00018400B884C8823438C882343CC882343B9
:102EC0001843108210BD0021018041808180C180A3
:102ED000704721B1828942F40052828104E08289E4
:102EE0004DF6FF731A4082817047F0B50346002407
:102EF00000260025002040F66A17B94200D100BF25
:102F00001846C1F3421401F01F06012707FA06F51F
:102F1000012C01D10C3004E0022C01D1103000E072
:102F200014301AB107682F43076002E00768AF4307
:102F30000760F0BD1AB1838A0B43838202E0838A63
:102F40008B4383827047028A4FF6F0731A400282E5
:102F5000028A0A430282704782894FF2FF731A4045
:102F6000828182890A438281704721B1828942F03D
:102F70000202828104E082894FF6FD731A40828149
:102F80007047028A4FF6DF731A400282028A0A43B0
:102F90000282704721B1028A42F48042028204E038
:102FA000028A4BF6FF731A4002827047C1F308028F
:102FB0008280704701468888C0F308007047818985
:102FC00041F0010181817047028BD2B20283028BF2
:102FD00042EA012202837047028B02F47F4202839D
:102FE000028B0A430283704721B1828A42F0200299
:102FF000828204E0828A4FF6DF731A408282704731
:1030000021B1828A42F01002828204E0828A4FF665
:10301000EF731A408282704721B1828A42F008021F
:10302000828204E0828A4FF6F7731A4082827047E8
:1030300021B1828942F40042828103E08289C2F395
:103040000E028281704721B1828A42F4006282823C
:1030500004E0828A4FF2FF731A4082827047828AAC
:103060004FF6FB731A408282828A0A43828270473B
:1030700021B1828A42F00202828204E0828A4FF603
:10308000FD731A408282704702460020B1F5007F2E
:1030900000D100BF13880B400BB1012000E00020DD
:1030A000704701F40072B2F5007F00D100BFCA433F
:1030B0000280704770B502460024002300250020DE
:1030C00040F66A16B14200D100BFC1F3421501F0CB
:1030D0001F03012606FA03F3012D02D1968933401E
:1030E00006E0022D02D1168A334001E0968A334071
:1030F0000C12012606FA04F41688344013B10CB100
:10310000012000E0002070BD10B50022002340F631
:103110006A14A14200D100BF0A1201249440A3B254
:10312000DC43048010BD0000003801400044004032
:1031300000480040004C0040005000402DE9FF478F
:1031400006460D4692464FF000082F46A9462C46EB
:1031500006B125B94FF0FF3004B0BDE8F0874FF05D
:10316000000845E0701C10F8080012283AD2DFE889
:1031700000F012131439391516171B393939391F54
:103180002925390950A001F09DFF3868544908608D
:103190007868486027E026E025E024E023E022E08C
:1031A0000120504908701EE000204E4908701AE0C6
:1031B00099F800104CA001F085FF14E04DA001F03B
:1031C00081FF10E0D4F80700A17962792379CDE975
:1031D0000032CDE90210E378A27821884AA001F0FC
:1031E00071FF00E000BF00BF08F1010000F0FF0820
:1031F00030784045B6DC0020AEE7012080F313882C
:1032000000BF00BF4B48006800F4E0604A49084333
:10321000001D48490860BFF3408F00BF00BFFEE7B4
:1032200046480068401C45490860704743480068AC
:10323000704700B5FFF7F4FF00BD08B5002000900F
:103240000121684600F099F908BD2DE9F0410546D5
:103250000E46002415B9601EBDE8F081FFF7E6FFB9
:1032600007463246394636A001F02CFF002423E001
:10327000295D3848FFF79AFE00BF40213548FFF727
:1032800003FF0028F9D0295D33A001F01BFF022CB9
:1032900011D3285DFF280ED155212E48FFF786FE59
:1032A00000BF40212B48FFF7EFFE0028F9D0552141
:1032B00029A001F007FF641CB442D9D328A001F073
:1032C00001FF3046C8E700004576743A2045564570
:1032D0004E545F6770735F6A696E6764750A0000B9
:1032E0004C00002000000020525353492025640A5E
:1032F000000000005452414E53504152454E545F1D
:1033000044415441200A0000574946495F4E5450F9
:10331000203A205B25642D25642D2564202530323C
:10332000643A253032643A253032645D5B25645D51
:10333000200A00000CED00E00000FA053C0000202F
:103340004D435532576946695B2534643A253464E8
:103350005D3A20000048004025303278200000000F
:103360000A00000010B504461CB9F9A001F0AAFE3D
:1033700010BDE0686060E068A06000BFF8E710B5CD
:1033800004461CB9F2A001F09DFE10BD0020E060D3
:103390006060A060206000BFF7E710B504462CB95C
:1033A000EBA001F08FFE4FF0FF3010BD2068FCE76E
:1033B00010B504462CB9E6A001F084FE4FF0FF30B2
:1033C00010BD6068A168884201D10020F8E76068FC
:1033D000A168884203D2A0686168401AF0E72046DD
:1033E000FFF7DBFF6168A268891A401AE8E770B549
:1033F00004462CB9D6A001F065FE4FF0FF3070BD39
:103400002046FFF7CAFF05462046FFF7D1FF281ADE
:10341000F5E72DE9F04104460F46164600252CB984
:10342000CBA001F04FFE681EBDE8F0812FB9CFA000
:1034300001F048FE4FF0FF30F6E76068A16888426F
:1034400014D22046FFF7B4FFB04201D9304602E063
:103450002046FFF7ADFF054661682A46384601F071
:103460009AFF6068284460602846DDE72046FFF741
:1034700094FF6168E268891A401AB0420AD9354659
:1034800061682A46384601F086FF6068284460601B
:103490002846C9E72046FFF780FF6168E268891A7D
:1034A000451A61682A46384601F075FFE068606099
:1034B000721B79192046FFF7ACFF05442846B3E795
:1034C0002DE9F04104460F46154600262CB9AEA062
:1034D00001F0F8FD701EBDE8F0812FB9B0A001F039
:1034E000F1FD4FF0FF30F6E72046FFF780FFA842DE
:1034F0000AD82046FFF77BFF80464146AEA001F088
:10350000E1FD4FF0FF30E6E76068A16888422AD805
:103510002046FFF742FFA168E268891A461AB542C1
:1035200013D8A0682A46394601F035FFA068284420
:10353000A0602046FFF731FFE1680844A168884297
:1035400001D1E068A0602846C5E7A0683246394648
:1035500001F021FFE068A060AA1BB9192046FFF71F
:10356000AFFF3044B7E7A0682A46394601F013FFA1
:10357000A0682844A0602846ADE770B504460D4613
:10358000002624B992A001F09DFD701E70BD2A4650
:1035900021469848FFF794FF0646AE4205D096A014
:1035A00001F090FD4FF0FF30F0E73046EEE72DE9F7
:1035B000F04104460D460027002604B135B92946DE
:1035C00094A001F07FFD0020BDE8F081022603E019
:1035D000A05D3844C7B2761C681EB042F8D83846A1
:1035E000F2E701B581B0694601AA507808701078F9
:1035F0004870BDF800000CBD0146080601F47F428A
:1036000040EA022001F47F0240EA122040EA116001
:1036100070472DE9F04104460E4600250027A846D4
:103620002CB98AA001F04EFD681EBDE8F08100258E
:103630000AE0675D701B401E14F8008004F80580E6
:10364000701B401E27546D1CB5EB560FF1D30020A4
:10365000EBE710B503460020541AB4FBF3F010BD9D
:1036600010B50346002002FB031010BD2DE9F04702
:1036700004460E46154600273146284602F096FAC3
:103680008146214602F0D0F8804602F08FF90746C5
:103690003846BDE8F0872DE9F04704460E4615464A
:1036A0000027284602F0A2F98146214602F0B2F92D
:1036B0008046314602F056F807463846BDE8F087A6
:1036C000024612B102F0070028B9082901D80020EB
:1036D00070470120FCE702F00700C0F108008842B3
:1036E00001D30020F4E70120F2E710B504462CB91D
:1036F00061A001F0E7FC4FF0FF3010BD002020601A
:103700006060FF20207060700020F6E770B504460E
:103710000D462CB922A001F0D5FC4FF0FF3070BD52
:1037200040F2BE315F4801F0ADFE2A4621465D48B9
:10373000801C01F030FE5C48A0F82D5B012180F870
:103740007617FFF773FD5849C1F82F0B0020E6E705
:103750004552524F523A20696E7075742072622041
:103760006973204E554C4C0A000000004552524FE0
:10377000523A20696E7075742064617461206973B7
:10378000204E554C4C0A00004552524F523A20727E
:103790006220697320656D707479200A0000000052
:1037A0004552524F523A206461746120697320651A
:1037B0006D707479200A00004552524F523A206EC3
:1037C0006F206D656D6F7279202564200A000000FE
:1037D0004552524F523A2067697A50757444617469
:1037E000612062756620697320656D707479200AA6
:1037F00000000000671500204552524F523A204603
:1038000061696C656420746F2072625772697465B7
:10381000200A00004552524F523A2067697A50728E
:103820006F746F636F6C53756D202C20627566200A
:10383000697320656D707479206F72206C656E20DD
:103840006572726F72202564200A000067697A42EF
:103850007974654F7264657245786368616E6765F7
:10386000204572726F72202C20496C6C6567616C08
:1038700020506172616D0A004552524F523A2067E2
:10388000697A50726F746F636F6C48656164496EDA
:103890006974206865616420697320656D7074794E
:1038A000200A00003D110020C80900202DE9F05F2A
:1038B00005460E4690461C460A9F4FF0000AD34626
:1038C000D14634B9FEA001F0FDFB4FF0FF30BDE85A
:1038D000F09F41463046FFF7F3FE8146B9F1000FF5
:1038E00007D1605D06F0070107FA01F10843605552
:1038F0001EE0B9F1010F1BD1F8B206F00701C1F1CA
:10390000080140FA01FA06F00700C0F10801FF20A3
:10391000084100EA070B681C205C40EA0A00691CA9
:103920006054605D06F007010BFA01F10843605531
:103930000020CCE72DE9F04105460C4616460DB1B6
:1039400004B136B9E8A001F0BDFB4FF0FF30BDE88F
:10395000F081287800F0010088B111212278601CE4
:1039600081542078401C2070D5F80100FDF710FC30
:1039700007463A4600210120FFF772FE30602878A2
:10398000C0F3400088B112212278601C8154207855
:10399000401C2070D5F80500FDF7FAFB07463A46B3
:1039A00000210120FFF75CFE70600020CFE770B5BA
:1039B00004460D46002604B12DB9D6A001F082FBC5
:1039C0004FF0FF3070BD28682168884203D0DBA02B
:1039D00001F078FB012668686168884203D0DEA0A8
:1039E00001F070FB0126A868A168884210D0FFF79B
:1039F0001DFCDF490968401A41F27071884207D303
:103A0000DCA001F05FFBFFF711FCD949086001263B
:103A10003046D7E770B504460D4604B12DB9DBA09A
:103A200001F050FB4FF0FF3070BD226800210120F3
:103A3000FFF70FFE0646FDF7ABFB2860626800212A
:103A40000120FFF706FE0646FDF7A2FB6860A268AC
:103A500000210120FFF7FDFD0646FDF799FBA86058
:103A60000020E1E72DE9F04704460E4617461D46C3
:103A7000A0464FF0000998F808900CB107B135B98D
:103A8000CEA001F01FFB4FF0FF30BDE8F0871421FE
:103A9000D64801F0F7FCB9F1010F06D0B9F1020FD9
:103AA00011D0B9F1050F44D123E0D04A3C32CF49BF
:103AB00004F10900FFF73EFF0120CD4908700027FF
:103AC0000020286036E0C9495431A1F10C00FFF70D
:103AD000A1FF50B9C5485430016839604168796028
:103AE0008068B8600C20286002E04FF0FF30CCE71F
:103AF00020E0A6F10A0204F10901BE4801F04BFCE6
:103B0000A6F10A00BA49C1F86D070F21B84890F82C
:103B1000332B00F634308154B54890F8330B401CF9
:103B2000B34981F8330B0320087000270020286078
:103B300000E000BF00BF0020A7E72DE9F0478AB0F2
:103B40000446884616460027BA46B946254614B1AB
:103B5000B8F1000F07D1A8A001F0B4FA4FF0FF3080
:103B60000AB0BDE8F087D6B901A8FFF7BEFD2079FD
:103B7000401CC0B28DF8080060798DF8090005205E
:103B8000FFF72FFDADF80600092101A8FFF70FFD93
:103B90008DF80C000DF1040A4FF0090925E004A886
:103BA000FFF7A3FD2879401CC0B28DF81400687996
:103BB0008DF81500B11D88B2FFF713FDADF81200A6
:103BC000287A401CC0B28DF81800324641460DF1EB
:103BD000190001F0E0FB162104A8FFF7E8FC8DF8BE
:103BE00025000DF1100A4FF0160949465046FFF71F
:103BF0002CFB0746002F04DA4A4639468A4801F072
:103C000061FA3846ACE7F0B587B005460E46174670
:103C100000242EB985A001F055FA601E07B0F0BD52
:103C200001A8FFF762FD05208DF80800704890F8A4
:103C30007117D0F87107401C6D4AC2F87107C8B2FD
:103C40008DF809008DF80C501220FFF7CAFCADF872
:103C500006003A4631460DF10D0001F09CFB16219D
:103C600001A8FFF7A4FC8DF81900162101A8FFF7A1
:103C7000ECFA0446002C03DA214676A001F022FA81
:103C8000162101A8FFF742FD2046C7E710B50446FC
:103C9000564948312046FFF78AFE01280ED175A00B
:103CA00001F010FA514954312046FFF7B3FE20B914
:103CB0000C224E4954310420E8E0E9E0EFE0000036
:103CC00067697A436F6D707265737356616C756561
:103CD000204572726F72202C20496C6C6567616C94
:103CE00020506172616D0A0067697A4461746150A5
:103CF0006F696E74324576656E74204572726F72AC
:103D0000202C20496C6C6567616C20506172616D7C
:103D10000A00000067697A436865636B5265706FDB
:103D20007274204572726F72202C20496C6C65672A
:103D3000616C20506172616D0A00000076616C75E3
:103D4000656770735F6A696E676475204368616E4A
:103D50006765640A0000000076616C7565677073C2
:103D60005F7765696475204368616E6765640A0002
:103D70004000002076616C75656770735F737065D5
:103D80006564204368616E6765640A0067697A4408
:103D9000617461506F696E7473325265706F7274C2
:103DA00044617461204572726F72202C20496C6CE2
:103DB0006567616C20506172616D0A0067697A50B5
:103DC000726F746F636F6C49737375656450726F53
:103DD00063657373204572726F72202C20496C6C7E
:103DE0006567616C20506172616D0A00FB140020F0
:103DF000C80900207F0D002067697A50726F746FC8
:103E0000636F6C4973737565644461746141636B7E
:103E1000204572726F72202C20496C6C6567616C52
:103E200020506172616D0A00045D000867697A5272
:103E300065706F727444617461204572726F722094
:103E40002C20496C6C6567616C20506172616D0A51
:103E5000000000004552524F523A207561727420A2
:103E60007772697465206572726F72202564200A0A
:103E7000000000006368616E6765642C20726570E5
:103E80006F727420646174610A000000FFF7BBFE6A
:103E9000FC482168016061684160A1688160FFF7AA
:103EA000C5F9F94990FBF1F201FB1200A8B9F7A09E
:103EB00001F008F9F3490C312046FFF7ABFD28B9B2
:103EC0000C22F0490C310420FFF79DFEED482168DB
:103ED000016061684160A168816010BD2DE9FE4FFD
:103EE00080460E4617464FF0000B00200290814698
:103EF0008246002534460090B8F1000F01D006B18B
:103F000037B9E8A001F0DEF84FF0FF30BDE8FE8FD2
:103F10004046FFF74DFA00F0FF0ABAF1000F02D158
:103F20004FF0FF30F2E74FF000095DE0012201A9F8
:103F30004046FFF76EFA8346BBF1000F52D0E548CA
:103F40000078FF281FD19DF80400FF281BD1E2480C
:103F5000007848B9FF20207060700220DF49088097
:103F60000120DD49087034E0DC480088042830DD99
:103F7000DA480088A8422CD0FF2020706070022010
:103F8000D649088025E0D3480078FF2803D19DF862
:103F9000040055281DD0D0480078012819D19DF87B
:103FA0000400CE4909886054CC480088401CCB49A5
:103FB00008800846008804280BDD0094009C608877
:103FC000FFF70FFB001D85B2C4480088A84200D14E
:103FD0000CE09DF80400BF490870C1480078401CFF
:103FE000BF49087009F10109D1459FDB00BFBB48FB
:103FF0000088042823DDB9480088A8421FD1B748AB
:1040000001882046FFF7D3FA0290B4480088401E8A
:10401000215C029881420FD12A462146304601F0A8
:10402000BAF93D800020AC490870AC490880AC4921
:104030000870A849087069E76FF0010066E7012081
:1040400064E710B50024A74890F8760700B910BDC2
:10405000A5A001F037F8A348B0F82D1B00F2777047
:10406000FFF7F3F804469F48B0F82D0BA04202D0AA
:10407000A5A001F027F8FFF7D9F89A49C1F82F0B4E
:1040800000BFE4E770B50446A64D34B9AFF6F000C2
:1040900001F018F84FF0FF3070BD2879401C2179ED
:1040A000884205D140F2BE319E48801E01F0EAF9F7
:1040B0000020F1E73EB50446002524B99AA001F09E
:1040C00001F8681E3EBD20680090606801909DF870
:1040D0000400401CC0B28DF804000520FFF781FAEF
:1040E000ADF8020009216846FFF761FA8DF8080073
:1040F00009216846FFF7A9F80546002D04DA29468C
:10410000AFF2B02000F0DEFF2846DBE710B57548BF
:1041100090F87607012829D1724890F8750702288F
:104120001EDAFFF783F86F49D1F82F1B401AB0F55C
:10413000FA6F1BD9FFF77AF804466A4890F875378A
:10414000D0F82F2B214683A000F0BCFFFFF779FFAA
:10415000644890F87507401C624981F8750705E0CE
:1041600040F2BE316F48801E01F08CF910BD30B5B1
:104170009DB0044600252CB980A000F0A3FF681E66
:104180001DB030BD6846FFF7B0FA02208DF804007C
:1041900060798DF8050085A103C9CDE9020186A1EA
:1041A00003C9CDE9040187A103C9CDE9080188A1AC
:1041B00003C9CDE90601202288A10AA801F030F93F
:1041C00020228FA10DF1520001F0E5F80020CDF87A
:1041D0004A00CDF84E009DF851008DF851009DF831
:1041E000510040F002018DF851100020FFF7F9F95D
:1041F000ADF848006F20FFF7F4F9ADF80200732125
:104200006846FFF7D4F98DF8720073216846FFF70E
:104210001CF80546002D04DA2946AFF2C83000F03C
:1042200051FF2846ACE7FEB504460E46002524B9EA
:104230007CA000F047FF681EFEBD6846FFF755FAF8
:1042400012208DF8040060798DF805000620FFF734
:10425000C8F9ADF802008DF808600A216846FFF73A
:10426000A6F98DF809000A216846FEF7EEFF05461B
:10427000002D04DA2946AFF2244000F023FF28463F
:10428000DAE7000043150020C0270900496E666F79
:104290003A2036303053207265706F72742064613A
:1042A00074610A0067697A50726F746F636F6C474C
:1042B00065744F6E655061636B6574204572726FF3
:1042C00072202C20496C6C6567616C2050617261B2
:1042D0006D0A000048000020440000204600002035
:1042E00049000020C80900205761726E696E673A64
:1042F0002074696D656F75742C20726573656E64CA
:104300002064617461200A004552524F523A207273
:104310006573656E642064617461206572726F728A
:104320000A0000003F1100204552524F523A2067C8
:10433000697A50726F746F636F6C436F6D6D6F6EDF
:1043400041636B206461746120697320656D7074D2
:1043500079200A005761726E696E673A67697A5010
:10436000726F746F636F6C526573656E64446174D1
:10437000612025642025642025640A0067697A503D
:10438000726F746F636F6C476574446576696365BB
:10439000496E666F204572726F72202C20496C6CDA
:1043A0006567616C20506172616D0A003030303099
:1043B00030303034000000003030303030303032B7
:1043C0000000000030333031303130310000000067
:1043D00030333031303130300000000066663464F4
:1043E00066643737333866393434663039393538AE
:1043F00064363634373330386639303200000000E6
:104400003734616264373034393335663436633279
:10441000383436323037353338656137306362656A
:104420000000000067697A50726F746F636F6C45AB
:1044300072726F72436D64204572726F72202C200D
:10444000496C6C6567616C20506172616D0A000097
:1044500070B504460026254624B9FAA000F032FEC5
:10446000701E70BDFD48A9684161E9688161298AB3
:104470008183A97C8177A0F53861B1F8940BFFF7AF
:10448000B0F8F749A1F8940BD1F89B0BFFF7B4F8FB
:10449000F349C1F89B0B0E21F14890F85B2B00F615
:1044A0005C308154EE4890F85B0B401CEC4981F87D
:1044B0005B0B042008700020D3E710B5FEF7B6FEB2
:1044C000044600BFFEF7B2FE001BB0F5167FF9D917
:1044D000FEF793FE10BD10B504462CB9E1A000F024
:1044E000F1FD4FF0FF3010BD2089FFF77AF82081F1
:1044F000E8480078C0F38000217AC1F38001884247
:104500005AD0207AC0F3800000282BD0207A00F007
:10451000010080B10021D24890F8472B00F64830C6
:104520008154CF4890F8470B401CCD4981F8470B88
:10453000D9A000F0C7FD207AC0F3400000283BD08E
:104540000121C74890F8472B00F648308154C448F1
:1045500090F8470B401CC24981F8470BD6A000F0E9
:10456000B1FD29E0207A00F0010080B10021BC48B3
:1045700090F8472B00F648308154B94890F8470B23
:10458000401CB74981F8470BC3A000F09BFD207A7F
:10459000C0F3400080B10221B14890F8472B00F6EB
:1045A00048308154AE4890F8470B401CAC4981F824
:1045B000470BC8A000F086FDB6480078C0F3C000E5
:1045C000217AC1F3C00188422ED0207AC108B148B7
:1045D000008861F3C300AF490880207AC0F3C000AF
:1045E00088B103219E4890F8472B00F6483081544B
:1045F0009B4890F8470B401C994981F8470BBCA099
:1046000000F060FD10E00421954890F8472B00F67B
:1046100048308154924890F8470B401C904981F8EB
:10462000470BBBA000F04EFD9A480078C0F3001085
:10463000217AC1F3001188422ED0207A01099548D1
:10464000008861F3041093490880207AC0F30010B9
:1046500088B10521824890F8472B00F648308154F4
:104660007F4890F8470B401C7D4981F8470BB0A06C
:1046700000F028FD10E00621794890F8472B00F65D
:1046800048308154764890F8470B401C744981F8B3
:10469000470BAFA000F016FD7E480078C0F3401035
:1046A000217AC1F3401188422ED0207A41097948FD
:1046B000008861F3451077490880207AC0F34010E4
:1046C00088B10721664890F8472B00F6483081549E
:1046D000634890F8470B401C614981F8470BA5A03F
:1046E00000F0F0FC10E008215D4890F8472B00F640
:1046F000483081545A4890F8470B401C584981F87B
:10470000470BA3A000F0DEFC62480088C0F3C02085
:104710002189C1F3C02188422ED02089C10A5D4879
:10472000008861F3CB205B4908802089C0F3C0205A
:1047300088B10B214A4890F8472B00F64830815445
:10474000474890F8470B401C454981F8470B98A013
:1047500000F0B8FC10E00C21414890F8472B00F61F
:10476000483081543E4890F8470B401C3C4981F842
:10477000470B96A000F0A6FC46480088C0F3003026
:104780002189C1F3003188422ED02089010B414894
:10479000008861F30C303F4908802089C0F3003065
:1047A00088B109212E4890F8472B00F648308154F3
:1047B0002B4890F8470B401C294981F8470B8BA0E8
:1047C00000F080FC10E00A21254890F8472B00F605
:1047D00048308154224890F8470B401C204981F80A
:1047E000470B89A000F06EFC0D211D4890F8472B67
:1047F00000F6483081541A4890F8470B401C18497D
:1048000081F8470B2089C0F3022081F8930B0846FA
:1048100090F8931B83A000F055FC0220104908700B
:10482000002060E610B540F26C7082490860824852
:10483000C8600846FEF796FD40F69F31084800F034
:1048400021FE10BD4552524F523A204E545020691D
:104850007320656D707479200A00000048150020EF
:10486000C809002067697A50726F746F636F6C4D6E
:104870006F64756C65537461747573204572726FE3
:1048800072202C20496C6C6567616C2050617261EC
:104890006D0A00004A0000204F6E426F6172646929
:1048A0006E673A20536F66744150206F72205765CF
:1048B00062206D6F64650A004F6E426F61726469B9
:1048C0006E673A204169724C696E6B206D6F64654A
:1048D0000A0000004F6E426F617264696E673A2091
:1048E00053746174696F6E206D6F64650A00000017
:1048F00057694669207374617475733A20696E2034
:1049000062696E64696E67206D6F64650A000000FD
:1049100057694669207374617475733A206F7574B2
:104920002062696E64696E67206D6F64650A0000BD
:1049300057694669207374617475733A20636F6EAA
:104940006E656374656420726F757465720A000029
:1049500057694669207374617475733A206469738A
:10496000636F6E6E656374656420726F75746572D3
:104970000A00000057694669207374617475733AC0
:1049800020636F6E6E6563746564206D326D0A001E
:1049900057694669207374617475733A206469734A
:1049A000636F6E6E6563746564206D326D0A00001E
:1049B00057694669207374617475733A2061707029
:1049C00020636F6E6E6563740A0000005769466964
:1049D000207374617475733A206E6F20617070205B
:1049E000636F6E6E6563740A000000005769466964
:1049F000207374617475733A20696E2074657374E2
:104A0000206D6F64650A0000576946692073746100
:104A10007475733A206F75742074657374206D6FAC
:104A200064650A0052535349206973202564200AA3
:104A300000000000671500207715002030B587B012
:104A400005460024052D7DD2DFE805F00331619392
:104A5000C10001A8FEF749FE0B208DF80800F848B8
:104A600090F87117D0F87107401CF54AC2F8710729
:104A7000C8B28DF809000520FEF7B3FDADF80600B9
:104A8000092101A8FEF793FD8DF80C00092101A86A
:104A9000FEF7DBFB0446002C04DA2146AFF64C405F
:104AA00000F010FB092101A8FEF730FEC1E004A8C8
:104AB000FEF71BFE09208DF81400E14890F87117ED
:104AC000D0F87107401CDE4AC2F87107C8B28DF8F1
:104AD00015008DF818500620FEF783FDADF8120082
:104AE0000A2104A8FEF763FD8DF819000A2104A825
:104AF000FEF7ABFB0446002C04DA2146AFF6AC40CF
:104B000000F0E0FA0A2104A8FEF700FE91E004A8F4
:104B1000FEF7EBFD09208DF81400C94890F87117D5
:104B2000D0F87107401CC64AC2F87107C8B28DF8A8
:104B300015008DF818500620FEF753FDADF8120051
:104B40000A2100E071E004A8FEF731FD8DF819009C
:104B50000A2104A8FEF779FB0446002C04DA21465A
:104B6000AFF6105000F0AEFA0A2104A8FEF7CEFD11
:104B70005FE001A8FEF7B9FD13208DF80800B048EA
:104B800090F87117D0F87107401CAD4AC2F8710750
:104B9000C8B28DF809000520FEF723FDADF8060028
:104BA000092101A8FEF703FD8DF80C00092101A8D9
:104BB000FEF74BFB0446002C04DA2146AFF66C509E
:104BC00000F080FA092101A8FEF7A0FD31E001A85C
:104BD000FEF78BFD15208DF80800994890F87117A5
:104BE000D0F87107401C964AC2F87107C8B28DF818
:104BF00009000520FEF7F5FCADF80600092101A823
:104C0000FEF7D5FC8DF80C00092101A8FEF71DFB6D
:104C10000446002C04DA2146AFF6C85000F052FAE0
:104C2000092101A8FEF772FD03E086A000F04AFA10
:104C300000BF00BF204607B030BD3EB50024684627
:104C4000FEF753FD17208DF804007D4890F871178A
:104C5000D0F87107401C7A4AC2F87107C8B28DF8C3
:104C600005000520FEF7BDFCADF8020009216846ED
:104C7000FEF79DFC8DF8080009216846FEF7E5FA6D
:104C80000446002C03DA214674A000F01BFA092127
:104C90006846FEF73BFD3EBD2DE9F041ADF5EF6DF9
:104CA00005460026002400200290019000273DB90F
:104CB00073A000F007FA601E0DF5EF6DBDE8F081FE
:104CC000FFF724FA02AA5E49491C7748FFF706F964
:104CD0000646002E74D175A000F0F4F9FEF7A6FA8E
:104CE0008046BDF80820414675A000F0EBF900248D
:104CF00007E05348401C015D76A000F0E3F9601C1A
:104D000084B2BDF808008442F3DB5CA000F0DAF95D
:104D10004B4F7F1C38790D2833D00EDC07282CD060
:104D200006DC012816D0032818D0062853D12FE01E
:104D30000A282ED00C284ED12CE0142839D004DCBF
:104D40000F282CD0112846D132E0162823D018285D
:104D500041D136E03846FFF70AFA44E001AB03AA36
:104D6000BDF808103648401CFEF77CFE20B903A9A8
:104D70003846019AFEF7E1FE35E03846FFF79AF92A
:104D800031E03846FFF796F93846FFF7A4FB2AE0F2
:104D900000BF00BF00BF3846FFF774F923E0384674
:104DA000FFF788F94DA000F08DF9FFF786FB1AE0B8
:104DB00019E03846FFF766F94DA000F083F912E0DC
:104DC00012E03846FFF75EF93846FFF741FB50A086
:104DD00000F078F907E002213846FFF724FA52A0E4
:104DE00000F070F900BF0EE016F1020F0BD1144F66
:104DF0007F1C01213846FFF716FA51A000F062F936
:104E00006FF0010058E70E480078012806D002280C
:104E100013D0032812D004280ED1BDE00020084989
:104E200008700C2201F66F31A1F13C00FEF786F903
:104E300014214A4800F026FBBEE091E09FE000000C
:104E4000C80900204552524F523A204366674D6FC1
:104E50006465206572726F72210A00004552524FDC
:104E6000525B4E54505D3A207561727420777269BE
:104E70007465206572726F72202564200A0000003C
:104E800047697A7769747348616E646C652045720E
:104E9000726F72202C20496C6C6567616C205061C8
:104EA00072616D0A000000006715002047657420DC
:104EB0004F6E65205061636B6574210A000000002D
:104EC00057694669324D43555B2534643A2534644D
:104ED0005D3A200025303278200000007265706F46
:104EE00072743A4D4355207265626F6F74210A00E7
:104EF00041636B2050524F44554354494F4E5F4DD0
:104F00004F44452073756363657373200A00000086
:104F100041636B204745545F555454207375636358
:104F2000657373200A0000004552524F523A2063C5
:104F30006D6420636F6465206572726F72210A0070
:104F40004552524F523A20636865636B2073756D0A
:104F5000206572726F72210A00000000FB140020AD
:104F6000002043490870012201F69331A1F14C0061
:104F7000FEF7E4F814213F4800F084FA1CE000201A
:104F80003B4908700846D0F86D2700F2B73100F6AB
:104F90003330FEF7D3F80FE00020354908700B22BC
:104FA00001F69431A1F13900FEF7C8F81421314817
:104FB000143000F067FA00BF00BF2846FEF766FE17
:104FC000002079E62DE9F041ADF56E7D06460F46ED
:104FD0004FF0000846B928A000F074F84FF0FF30F9
:104FE0000DF56E7DBDE8F0816C46B81D85B2FF20E1
:104FF00004F8010B04F8010B281204F8010B04F863
:10500000015B052004F8010B194890F87117D0F8DE
:105010007107401C164AC2F8710704F8011B0020F2
:1050200004F8010B04F8010B062004F8010B3A46C2
:1050300031460DF1090000F0AEF9291D6846FEF772
:10504000B6FA0146E81C0DF80010291D6846FEF767
:10505000FCF88046B8F1000F03DA4146104800F032
:1050600031F8291D6846FEF751FB0020B8E7000023
:10507000C80900200F1500205B4572726F725D2019
:1050800067697A77697473506173737468726F7546
:10509000676844617461204572726F72200A000073
:1050A000543E0008704710B5044600F011FA00683D
:1050B000005D000704D5DF2C02D0A4F1200010BD54
:1050C000204610BD0FB4044910B503AA029800F0A1
:1050D00061FA10BC5DF814FB2000002070B5044696
:1050E00085690068C10601D5302600E02026C0078A
:1050F00007D070BDD4E9012130469047206A401C9A
:1051000020626D1EF6D570BD70B5044685690078C5
:10511000C00707D170BDD4E9012120209047206A43
:10512000401C20626D1EF6D570BD00002DE9F041D7
:105130000646002410687529314616A510D0AFF335
:105140000080002802DA404213A507E031688A0790
:1051500001D512A502E0490704D511A5012401E0FB
:10516000AFF3008000210A2206F1240709E0B0FB1A
:10517000F2FCB0FBF2F302FB1C003030785418460E
:10518000491C0028F3D123462A463046BDE8F041A9
:1051900000F0A6B9000000002D0000002B00000068
:1051A0002000000070B504460D4621461068AFF39C
:1051B00000802188090502D50F4A7A4402E00E4A90
:1051C0007A440E32002104F1240305E000F00F06BA
:1051D0000009965D5E54491C0028F7D12078002311
:1051E000000704D5702D02D009B1022311322046E8
:1051F000BDE8704000F074B90A0B00002DE9F05FC3
:10520000894604464FF0000ADFF824B1FB44C0F899
:1052100020A02046E168884700287DD0252806D0B8
:10522000D4E901219047206A401C2062F1E7002563
:105230005F462046E16888472028064607DB312E76
:1052400005D2B81910F8200C08B10543F1E7A807FA
:1052500001D525F00405C4F81CA00027C4F818A047
:105260002A2E09D0304600F05FFA38B304EB8708E5
:10527000303EC8F8186019E059F8041B204604EBCA
:1052800087029161E1688847012F064618D1E069DD
:10529000002820DA25F020051DE0D8F8180000EBE2
:1052A000800006EB40003038C8F818002046E1685E
:1052B0008847064600F038FA0028EED1012F0AD0C0
:1052C0002E2E08D12046E16888477F1C0646022F13
:1052D00045F02005C4DBA069002803DA404245F010
:1052E0000105A061E80701D025F01005A6B1A6F1DF
:1052F0004100192802D8203645F400654A46314657
:10530000204625604D46FAF74DFF60B1012807D0D1
:10531000ED1D25F0070000E007E000F1080978E73F
:1053200005F1040975E730467AE7206ABDE8F09F89
:10533000E00A000030B505460B462A4613F8014B3B
:1053400012F8010B08B1A042F8D01CB1002802D01D
:105350006D1CF1E7284630BD10B5431C02E010F883
:10536000011B71B18107FAD14FF0013202C88C1ACA
:105370008C4314EAC211F9D0C01A0A0603D0C01E29
:1053800010BDC01A10BD0A0401D0801E10BD090254
:10539000FCD0401E10BD032A40F2308010F0030CF8
:1053A00000F0158011F8013BBCF1020F624498BF78
:1053B00011F801CB00F8013B38BF11F8013BA2F115
:1053C000040298BF00F801CB38BF00F8013B11F090
:1053D000030300F02580083AC0F0088051F8043B30
:1053E000083A51F804CBA0E80810F5E7121D5CBF9D
:1053F00051F8043B40F8043BAFF30080D20724BFD0
:1054000011F8013B11F801CB48BF11F8012B24BF63
:1054100000F8013B00F801CB48BF00F8012B7047B2
:1054200010B5203AC0F00B80B1E81850203AA0E83F
:105430001850B1E81850A0E81850BFF4F5AF5FEA73
:10544000027C24BFB1E81850A0E8185044BF18C926
:1054500018C0BDE810405FEA827C24BF51F8043BCD
:1054600040F8043B08BF7047D20728BF31F8023B21
:1054700048BF11F8012B28BF20F8023B48BF00F8B5
:10548000012B70474FF000020429C0F0128010F089
:10549000030C00F09380CCF1040CBCF1020F18BF98
:1054A00000F8012BA8BF20F8022BA1EB0C0100F0A3
:1054B00085B85FEAC17C24BF00F8012B00F8012BFE
:1054C00048BF00F8012B704770477047704770471E
:1054D00010B500F099F8001D10BD00BF5D0200007E
:1054E0002DE9F0470D4699469246044600F12408FE
:1054F0000168880604D5E06921F01001216000E010
:105500000120A84201DD471B00E00027A1697A19AC
:1055100002EB0900081AA0612078C00602D42046D8
:10552000FFF7DCFD002608E0D4E901211AF80600A7
:105530009047206A401C761C20624E45F4DB2078A0
:10554000C0060AD52046FFF7C9FD06E0D4E90121CF
:1055500030209047206A401C2062381EA7F10107C6
:10556000F4DC07E0D4E9012118F805009047206A2F
:10557000401C2062281EA5F10105F3DC2046FFF740
:10558000C3FD2078000602D50220BDE8F087012087
:10559000FBE70000074B70B50D467B4400F03DF87B
:1055A0000446284600F04CF810B14FF0FF3070BDB3
:1055B000204670BD23C0FFFF4FF0000200B5134628
:1055C00094469646203922BFA0E80C50A0E80C5023
:1055D000B1F12001BFF4F7AF090728BFA0E80C50D4
:1055E00048BF0CC05DF804EB890028BF40F8042BCD
:1055F00008BF704748BF20F8022B11F0804F18BF3A
:1056000000F8012B7047000000487047041D00207F
:1056100001694A1C02610878704700B58FB0CDE976
:1056200001310021059105497944CDE90310114666
:105630006846FFF7E3FD0FB000BD0000E5FFFFFF88
:10564000007B00F08000704700487047E41C002099
:105650007546FFF7F9FFAE4605006946534620F050
:105660000700854618B020B5FCF756F8BDE8204085
:105670004FF000064FF000074FF000084FF0000B0E
:1056800021F00701AC46ACE8C009ACE8C009ACE8C1
:10569000C009ACE8C0098D4670470446AFF30080EE
:1056A0002046FAF79DFD00004FF0013C50F8042B16
:1056B00051F8043B9A4221D1A2EB0C03934313EA25
:1056C000CC1317D150F8042B51F8043B9A4215D152
:1056D000A2EB0C03934313EACC130BD150F8042B29
:1056E00051F8043B9A4209D1A2EB0C03934313EA0D
:1056F000CC13DBD04FF00000704700BFD01A01BAC6
:10570000B1FA81F101F0180122FA01F0CB40C1F1A8
:105710002001DBB2C0B2C01A2CFA01F3D11A9143B6
:1057200011EAC311E6D1704730380A2801D20120AE
:10573000704700207047000010B500290AD0087893
:10574000002807D005487844FFF7AEFF002801D0B5
:10575000002010BD0248784410BD00002206000061
:105760001A06000090EA010F48BF81F0004100F1E5
:105770002482421A3CBF801A89184FEAD0524FF057
:105780007F4C1CEA410FA2EBD15318BF9CEA026F79
:1057900000F03B804FF0004C4CEA00204CEA012125
:1057A00021FA03FC10EB0C0C1ED202F1FF325FEA6F
:1057B0001C2040EBC25038BF70471CF07F0F4FEAEF
:1057C000400C18BFBCF17F4F38BF7047C3F12003B6
:1057D000994008BF20F00100BCF17F4F38BF7047EF
:1057E000A0F1C04000F0DDB94FEA3C00000A40EBF8
:1057F000C25028BF1CF0FF0F4FEA400CE6D018BF84
:10580000BCF17F4F38BF7047EAE79CEA026F05D0D2
:1058100010EA5C0F08BF00F00040704710B500F0C0
:105820007AF900BF64FBBE3E4FF47F0C1CEAD01235
:105830001EBF1CEAD11392EA0C0F93EA0C0F00F082
:10584000858090EA010F48BF42F4807240F4000C5A
:1058500041F400002CF07F4120F07F4000B58142F0
:10586000A2EB03020FF2081CACEB504EC0F100009B
:105870009EF800E04FEA4E0E00FB0EFC38BF4900D8
:105880004FEA2C1C02F5FA020CFB0EF34FEACE1E77
:105890004FEA112C4FEAC1210EEB635E42EB22422C
:1058A0000EFB0CFC4FEA1C5300FB03114FEA112CBA
:1058B0004FEA01310EFB0CFC4FEADC4C00FB0C11F3
:1058C000C14228BF09184CEB03335DF804EB10EB21
:1058D000410143EBC250B2F57C0F38BF704729D568
:1058E00012F0F00F1CBF00F1C04000F00040704704
:1058F000008182838485868788898B8C8D8E8F91A9
:105900009293959697999A9C9D9FA0A2A3A5A7A8CC
:10591000AAACAEB0B2B3B5B7B9BCBEC0C2C5C7C9F8
:10592000CCCED1D4D7D9DCDFE2E6E9ECF0F3F7FA5C
:10593000FE0000004FEA400C0CF1807CBCF17E4F71
:1059400028BF7047B0F1C04000F02BB990EA010FBA
:105950000CEAD11348BF42F48072624538BF6345F8
:1059600007D213F47F0F16D080EA010000F0004048
:10597000704710B500F0CFF8097EFC3E00F005B886
:1059800080EA010000F00040704780EA010000F06A
:10599000004000F006B912F47F0F04BF02487047C0
:1059A00080EA010000F0FDB80000C07FC10DD1F118
:1059B0009E0206DB4FEA002343F0004323FA02F085
:1059C0007047004207D54FEA4001B1F1FE4F02D2C5
:1059D0004FF00000704710B500F09DF84992248008
:1059E000002070476FEA200070470000B0FA80F393
:1059F00010FA03F2C3F19D030AD0D90501EB12207E
:105A0000530638BF704700F1010008BF20F00100C5
:105A1000704700004FF47F0C1CEAD0121EBF1CEA36
:105A2000D11392EA0C0F93EA0C0F00F0478090EA32
:105A3000010F48BF42F480724FF0004C4CEA002046
:105A40004CEA012102EB0302A0FB0113A2F50002C4
:105A5000002918BF43F001035B0028BF4FEA33035E
:105A600042EB22425FEA132C4CEBC2502EBFBCEB40
:105A7000436FB2F57C0F70474FEA036CBCF1004FE7
:105A800008BF20F00100B2F57C0F38BF70470BD57E
:105A900082F0FF0212F5803FC8BF704700F1C0409E
:105AA000D8BF00F00040704700F5000C5FEA4C0CD6
:105AB00048BF7047B0F1C04000F073B890EA010FE2
:105AC0000CEAD11348BF42F48072624538BF634587
:105AD00004D280EA010000F00040704710B500F0E9
